{
  "contractName": "ArbContract",
  "abi": [
    {
      "anonymous": false,
      "inputs": [
        {
          "indexed": false,
          "name": "trader",
          "type": "address"
        },
        {
          "indexed": false,
          "name": "eth",
          "type": "uint256"
        },
        {
          "indexed": false,
          "name": "tokens",
          "type": "uint256"
        }
      ],
      "name": "ethToToken",
      "type": "event"
    },
    {
      "constant": false,
      "inputs": [
        {
          "name": "uniSwapExchangeAddr",
          "type": "address"
        },
        {
          "name": "min_buy_tokens",
          "type": "uint256"
        },
        {
          "name": "buy_deadline",
          "type": "uint256"
        },
        {
          "name": "buy_eth_value",
          "type": "uint256"
        },
        {
          "name": "max_sell_tokens",
          "type": "uint256"
        },
        {
          "name": "sell_deadline",
          "type": "uint256"
        },
        {
          "name": "sell_eth_value",
          "type": "uint256"
        }
      ],
      "name": "trade",
      "outputs": [],
      "payable": true,
      "stateMutability": "payable",
      "type": "function"
    },
    {
      "constant": true,
      "inputs": [],
      "name": "getBalance",
      "outputs": [
        {
          "name": "",
          "type": "uint256"
        }
      ],
      "payable": false,
      "stateMutability": "view",
      "type": "function"
    }
  ],
  "bytecode": "0x608060405234801561001057600080fd5b50610387806100206000396000f3fe6080604052600436106100295760003560e01c806312065fe01461002e578063691c6a0514610059575b600080fd5b34801561003a57600080fd5b506100436100d9565b6040518082815260200191505060405180910390f35b6100d7600480360360e081101561006f57600080fd5b81019080803573ffffffffffffffffffffffffffffffffffffffff1690602001909291908035906020019092919080359060200190929190803590602001909291908035906020019092919080359060200190929190803590602001909291905050506100f8565b005b60003073ffffffffffffffffffffffffffffffffffffffff1631905090565b8334101561016e576040517f08c379a00000000000000000000000000000000000000000000000000000000081526004018080602001828103825260138152602001807f4e6f7420456e6f756768204574682053656e740000000000000000000000000081525060200191505060405180910390fd5b60008790508073ffffffffffffffffffffffffffffffffffffffff1663f39b5b9b8689896040518463ffffffff1660e01b815260040180838152602001828152602001925050506020604051808303818588803b1580156101ce57600080fd5b505af11580156101e2573d6000803e3d6000fd5b50505050506040513d60208110156101f957600080fd5b8101908080519060200190929190505050507fef501080e89b7bbe29cfb8e1eb48a349f22c4777a3c85d770104c8a80f45b68d338689604051808473ffffffffffffffffffffffffffffffffffffffff1673ffffffffffffffffffffffffffffffffffffffff168152602001838152602001828152602001935050505060405180910390a18073ffffffffffffffffffffffffffffffffffffffff1663d4e4841d838686336040518563ffffffff1660e01b8152600401808581526020018481526020018381526020018273ffffffffffffffffffffffffffffffffffffffff1673ffffffffffffffffffffffffffffffffffffffff168152602001945050505050602060405180830381600087803b15801561031557600080fd5b505af1158015610329573d6000803e3d6000fd5b505050506040513d602081101561033f57600080fd5b810190808051906020019092919050505050505050505050505056fea165627a7a72305820d6aa1246548eec4e43844f87664dd2a17dfa54e49d25cc1fbed073ada771dc240029",
  "source": "pragma solidity ^0.5.0;\n\nimport \"./UniswapExchange.sol\";\n\ncontract ArbContract {\n\n  event ethToToken(address trader, uint256 eth, uint256 tokens);\n\n  function trade(\n    address uniSwapExchangeAddr,\n    uint256 min_buy_tokens,\n    uint256 buy_deadline,\n    uint256 buy_eth_value,\n    uint256 max_sell_tokens,\n    uint256 sell_deadline,\n    uint256 sell_eth_value)\n    public payable {\n      require(msg.value >= buy_eth_value, \"Not Enough Eth Sent\");\n\n      UniswapExchange uniSwapExchange = UniswapExchange(uniSwapExchangeAddr);\n\n      uniSwapExchange.ethToTokenSwapInput.value(buy_eth_value)(min_buy_tokens, buy_deadline);                    // Swap Eth to token in UniSwap\n      emit ethToToken(msg.sender, buy_eth_value, min_buy_tokens);\n\n      uniSwapExchange.tokenToEthTransferOutput(sell_eth_value, max_sell_tokens, sell_deadline, msg.sender);\n  }\n\n  // Make Buy Uni/Sell Balancer\n  // Make Buy Balancer/Sell Uni\n\n  // Need to enable tokens?\n\n  // Make a separate Uniswap only function. This will be used to test the Bot itself before Balancer is available.\n\n  function getBalance() public view returns (uint256) {\n    return address(this).balance;\n  }\n}\n",
  "sourcePath": "/Users/jg/Documents/bot/contracts/ArbContract.sol",
  "compiler": {
    "name": "solc",
    "version": "0.5.8+commit.23d335f2.Emscripten.clang"
  },
  "schemaVersion": "3.0.16",
  "updatedAt": "2019-10-05T19:11:09.150Z",
  "devdoc": {
    "methods": {}
  },
  "userdoc": {
    "methods": {}
  }
}