{
  "contractName": "KyberTestContract",
  "abi": [
    {
      "constant": true,
      "inputs": [],
      "name": "owner",
      "outputs": [
        {
          "name": "",
          "type": "address"
        }
      ],
      "payable": false,
      "stateMutability": "view",
      "type": "function"
    },
    {
      "inputs": [],
      "payable": false,
      "stateMutability": "nonpayable",
      "type": "constructor"
    },
    {
      "anonymous": false,
      "inputs": [
        {
          "indexed": false,
          "name": "trader",
          "type": "address"
        },
        {
          "indexed": false,
          "name": "tokens",
          "type": "uint256"
        },
        {
          "indexed": false,
          "name": "token_bought",
          "type": "uint256"
        }
      ],
      "name": "ethToToken",
      "type": "event"
    },
    {
      "anonymous": false,
      "inputs": [
        {
          "indexed": false,
          "name": "trader",
          "type": "address"
        },
        {
          "indexed": false,
          "name": "ethToBuy",
          "type": "uint256"
        },
        {
          "indexed": false,
          "name": "maxTokensSell",
          "type": "uint256"
        },
        {
          "indexed": false,
          "name": "tokens_sold",
          "type": "uint256"
        }
      ],
      "name": "tokenToEth",
      "type": "event"
    },
    {
      "constant": false,
      "inputs": [
        {
          "name": "tokenAddress",
          "type": "address"
        },
        {
          "name": "exchangeAddress",
          "type": "address"
        },
        {
          "name": "amount",
          "type": "uint256"
        }
      ],
      "name": "approveToken",
      "outputs": [],
      "payable": false,
      "stateMutability": "nonpayable",
      "type": "function"
    },
    {
      "constant": false,
      "inputs": [
        {
          "name": "kyberExchangeAddress",
          "type": "address"
        },
        {
          "name": "tokenAddress",
          "type": "address"
        },
        {
          "name": "kyberMinConversionRate",
          "type": "uint256"
        },
        {
          "name": "uniSwapExchangeAddress",
          "type": "address"
        },
        {
          "name": "ethToSell",
          "type": "uint256"
        },
        {
          "name": "maxTokensSell",
          "type": "uint256"
        },
        {
          "name": "sellDeadline",
          "type": "uint256"
        },
        {
          "name": "ethToBuy",
          "type": "uint256"
        }
      ],
      "name": "trade",
      "outputs": [],
      "payable": true,
      "stateMutability": "payable",
      "type": "function"
    },
    {
      "constant": false,
      "inputs": [
        {
          "name": "kyberExchangeAddress",
          "type": "address"
        },
        {
          "name": "tokenAddress",
          "type": "address"
        },
        {
          "name": "kyberMinConversionRate",
          "type": "uint256"
        },
        {
          "name": "ethToSell",
          "type": "uint256"
        }
      ],
      "name": "tradeEthToToken",
      "outputs": [],
      "payable": true,
      "stateMutability": "payable",
      "type": "function"
    },
    {
      "constant": false,
      "inputs": [
        {
          "name": "uniSwapExchangeAddress",
          "type": "address"
        },
        {
          "name": "maxTokensSell",
          "type": "uint256"
        },
        {
          "name": "sellDeadline",
          "type": "uint256"
        },
        {
          "name": "ethToBuy",
          "type": "uint256"
        }
      ],
      "name": "tradeTokenToEth",
      "outputs": [],
      "payable": false,
      "stateMutability": "nonpayable",
      "type": "function"
    },
    {
      "constant": true,
      "inputs": [],
      "name": "getBalance",
      "outputs": [
        {
          "name": "",
          "type": "uint256"
        }
      ],
      "payable": false,
      "stateMutability": "view",
      "type": "function"
    }
  ],
  "bytecode": "0x608060405234801561001057600080fd5b50336000806101000a81548173ffffffffffffffffffffffffffffffffffffffff021916908373ffffffffffffffffffffffffffffffffffffffff160217905550610b35806100606000396000f3fe6080604052600436106100555760003560e01c806312065fe01461005a5780635a1b2c78146100855780636efd905c1461013c5780638da5cb5b146101ab578063c37113b114610202578063da3e33971461027a575b600080fd5b34801561006657600080fd5b5061006f6102f5565b6040518082815260200191505060405180910390f35b61013a600480360361010081101561009c57600080fd5b81019080803573ffffffffffffffffffffffffffffffffffffffff169060200190929190803573ffffffffffffffffffffffffffffffffffffffff16906020019092919080359060200190929190803573ffffffffffffffffffffffffffffffffffffffff16906020019092919080359060200190929190803590602001909291908035906020019092919080359060200190929190505050610314565b005b34801561014857600080fd5b506101a96004803603608081101561015f57600080fd5b81019080803573ffffffffffffffffffffffffffffffffffffffff169060200190929190803590602001909291908035906020019092919080359060200190929190505050610633565b005b3480156101b757600080fd5b506101c0610791565b604051808273ffffffffffffffffffffffffffffffffffffffff1673ffffffffffffffffffffffffffffffffffffffff16815260200191505060405180910390f35b6102786004803603608081101561021857600080fd5b81019080803573ffffffffffffffffffffffffffffffffffffffff169060200190929190803573ffffffffffffffffffffffffffffffffffffffff16906020019092919080359060200190929190803590602001909291905050506107b6565b005b34801561028657600080fd5b506102f36004803603606081101561029d57600080fd5b81019080803573ffffffffffffffffffffffffffffffffffffffff169060200190929190803573ffffffffffffffffffffffffffffffffffffffff16906020019092919080359060200190929190505050610979565b005b60003073ffffffffffffffffffffffffffffffffffffffff1631905090565b8334101561038a576040517f08c379a00000000000000000000000000000000000000000000000000000000081526004018080602001828103825260138152602001807f4e6f7420456e6f756768204574682053656e740000000000000000000000000081525060200191505060405180910390fd5b6000889050600088905060008273ffffffffffffffffffffffffffffffffffffffff16637a2a045688848c6040518463ffffffff1660e01b8152600401808373ffffffffffffffffffffffffffffffffffffffff1673ffffffffffffffffffffffffffffffffffffffff168152602001828152602001925050506020604051808303818588803b15801561041d57600080fd5b505af1158015610431573d6000803e3d6000fd5b50505050506040513d602081101561044857600080fd5b810190808051906020019092919050505090507fef501080e89b7bbe29cfb8e1eb48a349f22c4777a3c85d770104c8a80f45b68d338883604051808473ffffffffffffffffffffffffffffffffffffffff1673ffffffffffffffffffffffffffffffffffffffff168152602001838152602001828152602001935050505060405180910390a1600088905060008173ffffffffffffffffffffffffffffffffffffffff1663d4e4841d878a8a336040518563ffffffff1660e01b8152600401808581526020018481526020018381526020018273ffffffffffffffffffffffffffffffffffffffff1673ffffffffffffffffffffffffffffffffffffffff168152602001945050505050602060405180830381600087803b15801561056c57600080fd5b505af1158015610580573d6000803e3d6000fd5b505050506040513d602081101561059657600080fd5b810190808051906020019092919050505090507fe9c245f1c1a4a7a621218231e7ed679594b1c02c80e4fe05a465ecb46dc37f4733878a84604051808573ffffffffffffffffffffffffffffffffffffffff1673ffffffffffffffffffffffffffffffffffffffff16815260200184815260200183815260200182815260200194505050505060405180910390a150505050505050505050505050565b600084905060008173ffffffffffffffffffffffffffffffffffffffff1663d4e4841d848787336040518563ffffffff1660e01b8152600401808581526020018481526020018381526020018273ffffffffffffffffffffffffffffffffffffffff1673ffffffffffffffffffffffffffffffffffffffff168152602001945050505050602060405180830381600087803b1580156106d157600080fd5b505af11580156106e5573d6000803e3d6000fd5b505050506040513d60208110156106fb57600080fd5b810190808051906020019092919050505090507fe9c245f1c1a4a7a621218231e7ed679594b1c02c80e4fe05a465ecb46dc37f4733848784604051808573ffffffffffffffffffffffffffffffffffffffff1673ffffffffffffffffffffffffffffffffffffffff16815260200184815260200183815260200182815260200194505050505060405180910390a1505050505050565b6000809054906101000a900473ffffffffffffffffffffffffffffffffffffffff1681565b8034101561082c576040517f08c379a00000000000000000000000000000000000000000000000000000000081526004018080602001828103825260138152602001807f4e6f7420456e6f756768204574682053656e740000000000000000000000000081525060200191505060405180910390fd5b6000849050600084905060008273ffffffffffffffffffffffffffffffffffffffff16637a2a04568584886040518463ffffffff1660e01b8152600401808373ffffffffffffffffffffffffffffffffffffffff1673ffffffffffffffffffffffffffffffffffffffff168152602001828152602001925050506020604051808303818588803b1580156108bf57600080fd5b505af11580156108d3573d6000803e3d6000fd5b50505050506040513d60208110156108ea57600080fd5b810190808051906020019092919050505090507fef501080e89b7bbe29cfb8e1eb48a349f22c4777a3c85d770104c8a80f45b68d338583604051808473ffffffffffffffffffffffffffffffffffffffff1673ffffffffffffffffffffffffffffffffffffffff168152602001838152602001828152602001935050505060405180910390a150505050505050565b6000809054906101000a900473ffffffffffffffffffffffffffffffffffffffff1673ffffffffffffffffffffffffffffffffffffffff163373ffffffffffffffffffffffffffffffffffffffff1614610a3b576040517f08c379a00000000000000000000000000000000000000000000000000000000081526004018080602001828103825260168152602001807f4f6e6c79204f776e65722043616e20417070726f76650000000000000000000081525060200191505060405180910390fd5b60008390508073ffffffffffffffffffffffffffffffffffffffff1663095ea7b384846040518363ffffffff1660e01b8152600401808373ffffffffffffffffffffffffffffffffffffffff1673ffffffffffffffffffffffffffffffffffffffff16815260200182815260200192505050602060405180830381600087803b158015610ac757600080fd5b505af1158015610adb573d6000803e3d6000fd5b505050506040513d6020811015610af157600080fd5b8101908080519060200190929190505050505050505056fea165627a7a72305820fe2507a5351d50fafca08a1190381b1583bed570d070ccda89a9f0d85f392ba70029",
  "source": "pragma solidity ^0.5.0;\n\nimport \"./UniswapExchange.sol\";\nimport \"@openzeppelin/contracts/token/ERC20/ERC20.sol\";\nimport \"./KyberNetworkProxy.sol\";\n\ncontract KyberTestContract {\n  // Variable to hold owner of contract. Set on deploy.\n  address public owner;\n\n  // Events\n  event ethToToken(address trader, uint256 tokens, uint256 token_bought);\n  event tokenToEth(address trader, uint256 ethToBuy, uint256 maxTokensSell, uint256 tokens_sold);\n\n  /**\n   * @dev Contract constructor. Set owner of contract as deployer.\n   */\n  constructor() public {\n    owner = msg.sender;\n  }\n\n  /**\n   * @dev Approves UniSwap exchange to transfer tokens from contract.\n   * @param tokenAddress Address of the token to approve\n   * @param exchangeAddress UniSwap Exchange address\n   * @param amount Token amount to approve\n   */\n  function approveToken(address tokenAddress, address exchangeAddress, uint amount) public {\n    require(msg.sender == owner, \"Only Owner Can Approve\");\n    ERC20 token = ERC20(tokenAddress);\n    token.approve(exchangeAddress, amount);\n  }\n\n  /**\n   * @dev Executes trade.\n   * @param kyberExchangeAddress Kyber network address\n   * @param tokenAddress Address of the token that is being traded\n   * @param kyberMinConversionRate Min conversion rate for Kyber\n   * @param uniSwapExchangeAddress UniSwap exchange address\n   * @param ethToSell Amount of Eth that is being traded via Kyber. Should be sent as value too.\n   * @param maxTokensSell Maximum ERC20 tokens sold in Uniswap trade.\n   * @param sellDeadline Uniswap transaction deadline.\n   * @param ethToBuy Amount of Eth bought in Uniswap trade.\n   */\n  function trade(\n    address kyberExchangeAddress,\n    address tokenAddress,\n    uint256 kyberMinConversionRate,\n    address uniSwapExchangeAddress,\n    uint256 ethToSell,\n    uint256 maxTokensSell,\n    uint256 sellDeadline,\n    uint256 ethToBuy\n  ) public\n    payable\n  {\n    require(msg.value >= ethToSell, \"Not Enough Eth Sent\");\n    // check approval\n\n    KyberNetworkProxy kyberExchange = KyberNetworkProxy(kyberExchangeAddress);\n    ERC20 token = ERC20(tokenAddress);\n\n    // Swaps Eth for Token via Kyber Exchange\n    uint256 token_bought = kyberExchange.swapEtherToToken.value(ethToSell)(token, kyberMinConversionRate);\n    emit ethToToken(msg.sender, ethToSell, token_bought);\n\n    // Swaps token to Eth and transfers Eth to msg sender address\n    UniswapExchange uniSwapExchange = UniswapExchange(uniSwapExchangeAddress);\n    uint256 tokens_sold = uniSwapExchange.tokenToEthTransferOutput(ethToBuy, maxTokensSell, sellDeadline, msg.sender);\n    emit tokenToEth(msg.sender, ethToBuy, maxTokensSell, tokens_sold);\n  }\n\n  function tradeEthToToken(\n    address kyberExchangeAddress,\n    address tokenAddress,\n    uint256 kyberMinConversionRate,\n    uint256 ethToSell)\n    public payable {\n      require(msg.value >= ethToSell, \"Not Enough Eth Sent\");\n\n      KyberNetworkProxy kyberExchange = KyberNetworkProxy(kyberExchangeAddress);\n\n      ERC20 token = ERC20(tokenAddress);\n\n      uint256 token_bought = kyberExchange.swapEtherToToken.value(ethToSell)(token, kyberMinConversionRate);                    // Swap Eth to token in UniSwap\n      emit ethToToken(msg.sender, ethToSell, token_bought);\n  }\n\n  function tradeTokenToEth(\n    address uniSwapExchangeAddress,\n    uint256 maxTokensSell,\n    uint256 sellDeadline,\n    uint256 ethToBuy)\n    public {\n      // Should check approval - see Kyber example?\n\n      UniswapExchange uniSwapExchange = UniswapExchange(uniSwapExchangeAddress);\n\n      uint256 tokens_sold = uniSwapExchange.tokenToEthTransferOutput(ethToBuy, maxTokensSell, sellDeadline, msg.sender);\n\n      emit tokenToEth(msg.sender, ethToBuy, maxTokensSell, tokens_sold);\n  }\n\n  function getBalance() public view returns (uint256) {\n    return address(this).balance;\n  }\n}\n",
  "sourcePath": "/Users/jg/Documents/bot/contracts/KyberTestContract.sol",
  "compiler": {
    "name": "solc",
    "version": "0.5.8+commit.23d335f2.Emscripten.clang"
  },
  "schemaVersion": "3.0.16",
  "updatedAt": "2019-10-11T22:36:11.430Z",
  "devdoc": {
    "methods": {
      "approveToken(address,address,uint256)": {
        "details": "Approves UniSwap exchange to transfer tokens from contract.",
        "params": {
          "amount": "Token amount to approve",
          "exchangeAddress": "UniSwap Exchange address",
          "tokenAddress": "Address of the token to approve"
        }
      },
      "constructor": {
        "details": "Contract constructor. Set owner of contract as deployer."
      },
      "trade(address,address,uint256,address,uint256,uint256,uint256,uint256)": {
        "details": "Executes trade.",
        "params": {
          "ethToBuy": "Amount of Eth bought in Uniswap trade.",
          "ethToSell": "Amount of Eth that is being traded via Kyber. Should be sent as value too.",
          "kyberExchangeAddress": "Kyber network address",
          "kyberMinConversionRate": "Min conversion rate for Kyber",
          "maxTokensSell": "Maximum ERC20 tokens sold in Uniswap trade.",
          "sellDeadline": "Uniswap transaction deadline.",
          "tokenAddress": "Address of the token that is being traded",
          "uniSwapExchangeAddress": "UniSwap exchange address"
        }
      }
    }
  },
  "userdoc": {
    "methods": {}
  }
}