{
  "contractName": "RinkebyArbContract",
  "abi": [
    {
      "anonymous": false,
      "inputs": [
        {
          "indexed": false,
          "name": "trader",
          "type": "address"
        },
        {
          "indexed": false,
          "name": "eth",
          "type": "uint256"
        },
        {
          "indexed": false,
          "name": "tokens",
          "type": "uint256"
        },
        {
          "indexed": false,
          "name": "token_bought",
          "type": "uint256"
        }
      ],
      "name": "ethToToken",
      "type": "event"
    },
    {
      "anonymous": false,
      "inputs": [
        {
          "indexed": false,
          "name": "trader",
          "type": "address"
        },
        {
          "indexed": false,
          "name": "sell_eth_value",
          "type": "uint256"
        },
        {
          "indexed": false,
          "name": "max_sell_tokens",
          "type": "uint256"
        },
        {
          "indexed": false,
          "name": "tokens_sold",
          "type": "uint256"
        }
      ],
      "name": "tokenToEth",
      "type": "event"
    },
    {
      "constant": false,
      "inputs": [
        {
          "name": "uniSwapExchangeAddr",
          "type": "address"
        },
        {
          "name": "min_buy_tokens",
          "type": "uint256"
        },
        {
          "name": "buy_deadline",
          "type": "uint256"
        },
        {
          "name": "buy_eth_value",
          "type": "uint256"
        },
        {
          "name": "max_sell_tokens",
          "type": "uint256"
        },
        {
          "name": "sell_deadline",
          "type": "uint256"
        },
        {
          "name": "sell_eth_value",
          "type": "uint256"
        }
      ],
      "name": "trade",
      "outputs": [],
      "payable": true,
      "stateMutability": "payable",
      "type": "function"
    },
    {
      "constant": false,
      "inputs": [
        {
          "name": "uniSwapExchangeAddr",
          "type": "address"
        },
        {
          "name": "min_buy_tokens",
          "type": "uint256"
        },
        {
          "name": "buy_deadline",
          "type": "uint256"
        },
        {
          "name": "buy_eth_value",
          "type": "uint256"
        }
      ],
      "name": "tradeEthToToken",
      "outputs": [],
      "payable": true,
      "stateMutability": "payable",
      "type": "function"
    },
    {
      "constant": false,
      "inputs": [
        {
          "name": "uniSwapExchangeAddr",
          "type": "address"
        },
        {
          "name": "max_sell_tokens",
          "type": "uint256"
        },
        {
          "name": "sell_deadline",
          "type": "uint256"
        },
        {
          "name": "sell_eth_value",
          "type": "uint256"
        }
      ],
      "name": "tradeTokenToEth",
      "outputs": [],
      "payable": false,
      "stateMutability": "nonpayable",
      "type": "function"
    },
    {
      "constant": true,
      "inputs": [],
      "name": "getBalance",
      "outputs": [
        {
          "name": "",
          "type": "uint256"
        }
      ],
      "payable": false,
      "stateMutability": "view",
      "type": "function"
    }
  ],
  "bytecode": "0x608060405234801561001057600080fd5b506107ee806100206000396000f3fe60806040526004361061003f5760003560e01c806312065fe014610044578063691c6a051461006f57806369ef92be146100ef5780636efd905c14610151575b600080fd5b34801561005057600080fd5b506100596101c0565b6040518082815260200191505060405180910390f35b6100ed600480360360e081101561008557600080fd5b81019080803573ffffffffffffffffffffffffffffffffffffffff1690602001909291908035906020019092919080359060200190929190803590602001909291908035906020019092919080359060200190929190803590602001909291905050506101df565b005b61014f6004803603608081101561010557600080fd5b81019080803573ffffffffffffffffffffffffffffffffffffffff1690602001909291908035906020019092919080359060200190929190803590602001909291905050506104cc565b005b34801561015d57600080fd5b506101be6004803603608081101561017457600080fd5b81019080803573ffffffffffffffffffffffffffffffffffffffff169060200190929190803590602001909291908035906020019092919080359060200190929190505050610664565b005b60003073ffffffffffffffffffffffffffffffffffffffff1631905090565b83341015610255576040517f08c379a00000000000000000000000000000000000000000000000000000000081526004018080602001828103825260138152602001807f4e6f7420456e6f756768204574682053656e740000000000000000000000000081525060200191505060405180910390fd5b600087905060008173ffffffffffffffffffffffffffffffffffffffff1663f39b5b9b878a8a6040518463ffffffff1660e01b815260040180838152602001828152602001925050506020604051808303818588803b1580156102b757600080fd5b505af11580156102cb573d6000803e3d6000fd5b50505050506040513d60208110156102e257600080fd5b810190808051906020019092919050505090507e54db9af6406356fb75e752b513e9bdf734056e92d4e263cb6b7e525773f22333878a84604051808573ffffffffffffffffffffffffffffffffffffffff1673ffffffffffffffffffffffffffffffffffffffff16815260200184815260200183815260200182815260200194505050505060405180910390a160008273ffffffffffffffffffffffffffffffffffffffff1663d4e4841d858888336040518563ffffffff1660e01b8152600401808581526020018481526020018381526020018273ffffffffffffffffffffffffffffffffffffffff1673ffffffffffffffffffffffffffffffffffffffff168152602001945050505050602060405180830381600087803b15801561040857600080fd5b505af115801561041c573d6000803e3d6000fd5b505050506040513d602081101561043257600080fd5b810190808051906020019092919050505090507fe9c245f1c1a4a7a621218231e7ed679594b1c02c80e4fe05a465ecb46dc37f4733858884604051808573ffffffffffffffffffffffffffffffffffffffff1673ffffffffffffffffffffffffffffffffffffffff16815260200184815260200183815260200182815260200194505050505060405180910390a150505050505050505050565b80341015610542576040517f08c379a00000000000000000000000000000000000000000000000000000000081526004018080602001828103825260138152602001807f4e6f7420456e6f756768204574682053656e740000000000000000000000000081525060200191505060405180910390fd5b600084905060008173ffffffffffffffffffffffffffffffffffffffff1663f39b5b9b8487876040518463ffffffff1660e01b815260040180838152602001828152602001925050506020604051808303818588803b1580156105a457600080fd5b505af11580156105b8573d6000803e3d6000fd5b50505050506040513d60208110156105cf57600080fd5b810190808051906020019092919050505090507e54db9af6406356fb75e752b513e9bdf734056e92d4e263cb6b7e525773f22333848784604051808573ffffffffffffffffffffffffffffffffffffffff1673ffffffffffffffffffffffffffffffffffffffff16815260200184815260200183815260200182815260200194505050505060405180910390a1505050505050565b600084905060008173ffffffffffffffffffffffffffffffffffffffff1663d4e4841d848787336040518563ffffffff1660e01b8152600401808581526020018481526020018381526020018273ffffffffffffffffffffffffffffffffffffffff1673ffffffffffffffffffffffffffffffffffffffff168152602001945050505050602060405180830381600087803b15801561070257600080fd5b505af1158015610716573d6000803e3d6000fd5b505050506040513d602081101561072c57600080fd5b810190808051906020019092919050505090507fe9c245f1c1a4a7a621218231e7ed679594b1c02c80e4fe05a465ecb46dc37f4733848784604051808573ffffffffffffffffffffffffffffffffffffffff1673ffffffffffffffffffffffffffffffffffffffff16815260200184815260200183815260200182815260200194505050505060405180910390a150505050505056fea165627a7a723058207bb090f7b4a5ae57b42273d8c59c12a2e5acb346dafb8a230123259443ab5f680029",
  "source": "pragma solidity ^0.5.0;\n\nimport \"./UniswapExchange.sol\";\n\ncontract RinkebyArbContract {\n\n  event ethToToken(address trader, uint256 eth, uint256 tokens, uint256 token_bought);\n  event tokenToEth(address trader, uint256 sell_eth_value, uint256 max_sell_tokens, uint256 tokens_sold);\n\n  function trade(\n    address uniSwapExchangeAddr,\n    uint256 min_buy_tokens,\n    uint256 buy_deadline,\n    uint256 buy_eth_value,\n    uint256 max_sell_tokens,\n    uint256 sell_deadline,\n    uint256 sell_eth_value)\n    public payable {\n      require(msg.value >= buy_eth_value, \"Not Enough Eth Sent\");\n\n      UniswapExchange uniSwapExchange = UniswapExchange(uniSwapExchangeAddr);\n\n      uint256 token_bought = uniSwapExchange.ethToTokenSwapInput.value(buy_eth_value)(min_buy_tokens, buy_deadline);                    // Swap Eth to token in UniSwap\n      emit ethToToken(msg.sender, buy_eth_value, min_buy_tokens, token_bought);\n\n      uint256 tokens_sold = uniSwapExchange.tokenToEthTransferOutput(sell_eth_value, max_sell_tokens, sell_deadline, msg.sender);\n      emit tokenToEth(msg.sender, sell_eth_value, max_sell_tokens, tokens_sold);\n  }\n\n  function tradeEthToToken(\n    address uniSwapExchangeAddr,\n    uint256 min_buy_tokens,\n    uint256 buy_deadline,\n    uint256 buy_eth_value)\n    public payable {\n      require(msg.value >= buy_eth_value, \"Not Enough Eth Sent\");\n\n      UniswapExchange uniSwapExchange = UniswapExchange(uniSwapExchangeAddr);\n\n      uint256 token_bought = uniSwapExchange.ethToTokenSwapInput.value(buy_eth_value)(min_buy_tokens, buy_deadline);                    // Swap Eth to token in UniSwap\n      emit ethToToken(msg.sender, buy_eth_value, min_buy_tokens, token_bought);\n  }\n\n  function tradeTokenToEth(\n    address uniSwapExchangeAddr,\n    uint256 max_sell_tokens,\n    uint256 sell_deadline,\n    uint256 sell_eth_value)\n    public {\n      UniswapExchange uniSwapExchange = UniswapExchange(uniSwapExchangeAddr);\n\n      uint256 tokens_sold = uniSwapExchange.tokenToEthTransferOutput(sell_eth_value, max_sell_tokens, sell_deadline, msg.sender);\n\n      emit tokenToEth(msg.sender, sell_eth_value, max_sell_tokens, tokens_sold);\n  }\n\n  function getBalance() public view returns (uint256) {\n    return address(this).balance;\n  }\n}\n",
  "sourcePath": "/Users/jg/Documents/bot/contracts/RinkebyArbContract.sol",
  "compiler": {
    "name": "solc",
    "version": "0.5.8+commit.23d335f2.Emscripten.clang"
  },
  "schemaVersion": "3.0.16",
  "updatedAt": "2019-10-05T19:11:09.165Z",
  "devdoc": {
    "methods": {}
  },
  "userdoc": {
    "methods": {}
  }
}