{
  "contractName": "SimpleStorage",
  "abi": [
    {
      "constant": false,
      "inputs": [
        {
          "name": "uniSwapExchangeAddr",
          "type": "address"
        },
        {
          "name": "min_tokens",
          "type": "uint256"
        }
      ],
      "name": "trade",
      "outputs": [
        {
          "name": "",
          "type": "bool"
        }
      ],
      "payable": true,
      "stateMutability": "payable",
      "type": "function"
    },
    {
      "constant": false,
      "inputs": [
        {
          "name": "x",
          "type": "uint256"
        }
      ],
      "name": "set",
      "outputs": [],
      "payable": false,
      "stateMutability": "nonpayable",
      "type": "function"
    },
    {
      "constant": true,
      "inputs": [],
      "name": "get",
      "outputs": [
        {
          "name": "",
          "type": "uint256"
        }
      ],
      "payable": false,
      "stateMutability": "view",
      "type": "function"
    }
  ],
  "bytecode": "0x608060405234801561001057600080fd5b50610151806100206000396000f3fe6080604052600436106100345760003560e01c806360fe47b11461003957806368f8c2a4146100745780636d4ce63c146100da575b600080fd5b34801561004557600080fd5b506100726004803603602081101561005c57600080fd5b8101908080359060200190929190505050610105565b005b6100c06004803603604081101561008a57600080fd5b81019080803573ffffffffffffffffffffffffffffffffffffffff1690602001909291908035906020019092919050505061010f565b604051808215151515815260200191505060405180910390f35b3480156100e657600080fd5b506100ef61011c565b6040518082815260200191505060405180910390f35b8060008190555050565b6000808390505092915050565b6000805490509056fea165627a7a7230582030de2962d433fbfb1ac1f31f158321d94e80ad58bd391ca37bf0e0d31f1c04760029",
  "source": "pragma solidity ^0.5.0;\n\nimport \"./TestUniswapExchange.sol\";\n\ncontract SimpleStorage {\n\n  uint storedData;\n\n  function trade(address uniSwapExchangeAddr, uint256 min_tokens) public payable returns (bool){\n    TestUniswapExchange uniSwapExchange = TestUniswapExchange(uniSwapExchangeAddr);\n  }\n\n  function set(uint x) public {\n    storedData = x;\n  }\n\n  function get() public view returns (uint) {\n    return storedData;\n  }\n}\n",
  "sourcePath": "/Users/jg/Documents/bot/contracts/SimpleStorage.sol",
  "compiler": {
    "name": "solc",
    "version": "0.5.8+commit.23d335f2.Emscripten.clang"
  },
  "schemaVersion": "3.0.16",
  "updatedAt": "2019-10-01T15:14:06.959Z",
  "devdoc": {
    "methods": {}
  },
  "userdoc": {
    "methods": {}
  }
}