{
  "contractName": "TestUniswapExchangeInterface",
  "abi": [
    {
      "constant": false,
      "inputs": [
        {
          "name": "min_tokens",
          "type": "uint256"
        },
        {
          "name": "deadline",
          "type": "uint256"
        }
      ],
      "name": "ethToTokenSwapInput",
      "outputs": [
        {
          "name": "tokens_bought",
          "type": "uint256"
        }
      ],
      "payable": true,
      "stateMutability": "payable",
      "type": "function"
    }
  ],
  "bytecode": "0x6080604052348015600f57600080fd5b5060a18061001e6000396000f3fe608060405260043610601c5760003560e01c8063f39b5b9b146021575b600080fd5b605460048036036040811015603557600080fd5b810190808035906020019092919080359060200190929190505050606a565b6040518082815260200191505060405180910390f35b60008290509291505056fea165627a7a72305820098bff3482c82835eddb81abe3644feb642db1492f782e9124693004e63392850029",
  "source": "pragma solidity ^0.5.0;\n// Solidity Interface\n\ncontract TestUniswapExchangeInterface {\n\n\n    // Trade ETH to ERC20\n    function ethToTokenSwapInput(uint256 min_tokens, uint256 deadline) external payable returns (uint256  tokens_bought){\n      return min_tokens;\n    }\n\n}\n",
  "sourcePath": "/Users/jg/Documents/bot/contracts/TestUniswapExchange.sol",
  "compiler": {
    "name": "solc",
    "version": "0.5.8+commit.23d335f2.Emscripten.clang"
  },
  "schemaVersion": "3.0.16",
  "updatedAt": "2019-10-01T15:04:27.212Z",
  "devdoc": {
    "methods": {}
  },
  "userdoc": {
    "methods": {}
  }
}