{
  "contractName": "TradingContract",
  "abi": [
    {
      "constant": false,
      "inputs": [
        {
          "name": "uniSwapExchangeAddr",
          "type": "address"
        },
        {
          "name": "min_buy_tokens",
          "type": "uint256"
        },
        {
          "name": "buy_deadline",
          "type": "uint256"
        },
        {
          "name": "buy_eth_value",
          "type": "uint256"
        },
        {
          "name": "sell_tokens",
          "type": "uint256"
        },
        {
          "name": "sell_deadline",
          "type": "uint256"
        },
        {
          "name": "min_sell_eth_value",
          "type": "uint256"
        }
      ],
      "name": "trade",
      "outputs": [],
      "payable": false,
      "stateMutability": "nonpayable",
      "type": "function"
    },
    {
      "constant": true,
      "inputs": [],
      "name": "getBalance",
      "outputs": [
        {
          "name": "",
          "type": "uint256"
        }
      ],
      "payable": false,
      "stateMutability": "view",
      "type": "function"
    },
    {
      "constant": false,
      "inputs": [],
      "name": "topUp",
      "outputs": [],
      "payable": true,
      "stateMutability": "payable",
      "type": "function"
    }
  ],
  "bytecode": "0x608060405234801561001057600080fd5b5061031a806100206000396000f3fe6080604052600436106100345760003560e01c806312065fe014610039578063691c6a0514610064578063dc29f1de146100f1575b600080fd5b34801561004557600080fd5b5061004e6100fb565b6040518082815260200191505060405180910390f35b34801561007057600080fd5b506100ef600480360360e081101561008757600080fd5b81019080803573ffffffffffffffffffffffffffffffffffffffff16906020019092919080359060200190929190803590602001909291908035906020019092919080359060200190929190803590602001909291908035906020019092919050505061011a565b005b6100f96102ec565b005b60003073ffffffffffffffffffffffffffffffffffffffff1631905090565b833073ffffffffffffffffffffffffffffffffffffffff1631116101a6576040517f08c379a000000000000000000000000000000000000000000000000000000000815260040180806020018281038252601a8152602001807f4e6f7420456e6f7567682045746820496e20436f6e747261637400000000000081525060200191505060405180910390fd5b60008790508073ffffffffffffffffffffffffffffffffffffffff1663f39b5b9b8689896040518463ffffffff1660e01b815260040180838152602001828152602001925050506020604051808303818588803b15801561020657600080fd5b505af115801561021a573d6000803e3d6000fd5b50505050506040513d602081101561023157600080fd5b8101908080519060200190929190505050508073ffffffffffffffffffffffffffffffffffffffff166395e3c50b8584866040518463ffffffff1660e01b8152600401808481526020018381526020018281526020019350505050602060405180830381600087803b1580156102a657600080fd5b505af11580156102ba573d6000803e3d6000fd5b505050506040513d60208110156102d057600080fd5b8101908080519060200190929190505050505050505050505050565b56fea165627a7a72305820871ddc5793288fd998ffa24ddf02004949bfca83e3d0b16043bb88e230d91e190029",
  "source": "pragma solidity ^0.5.0;\n\nimport \"./UniswapExchange.sol\";\n\ncontract TradingContract {\n\n  function trade(address uniSwapExchangeAddr, uint256 min_buy_tokens, uint256 buy_deadline, uint256 buy_eth_value, uint256 sell_tokens, uint256 sell_deadline, uint256 min_sell_eth_value) public {\n    require(address(this).balance > buy_eth_value, \"Not Enough Eth In Contract\");\n\n    UniswapExchange uniSwapExchange = UniswapExchange(uniSwapExchangeAddr);\n\n    uniSwapExchange.ethToTokenSwapInput.value(buy_eth_value)(min_buy_tokens, buy_deadline);                    // Swap Eth to token in UniSwap\n    // uniSwapExchange.ethToTokenSwapInput.value(eth_value)(min_tokens, deadline);                    // Swap Eth to token in UniSwap\n    uniSwapExchange.tokenToEthSwapInput(sell_tokens, min_sell_eth_value, sell_deadline);\n  }\n\n  // Make Buy Uni/Sell Balancer\n  // Make Buy Balancer/Sell Uni\n\n  // Need to enable tokens?\n\n  // Make call to claim Eth amount\n\n  // Make this address/owner callable only\n\n  // Make a separate Uniswap only function. This will be used to test the Bot itself before Balancer is available.\n\n  function getBalance() public view returns (uint256) {\n    return address(this).balance;\n  }\n\n  function topUp() public payable {\n\n  }\n}\n",
  "sourcePath": "/Users/jg/Documents/bot/contracts/TradingContract.sol",
  "compiler": {
    "name": "solc",
    "version": "0.5.8+commit.23d335f2.Emscripten.clang"
  },
  "schemaVersion": "3.0.16",
  "updatedAt": "2019-10-05T19:11:09.171Z",
  "devdoc": {
    "methods": {}
  },
  "userdoc": {
    "methods": {}
  }
}